:100000000A128A11D42F0A128A1547240A128A1159
:100010008312031364036504031D0F28102814289A
:100020006008E60001301528003008000310831234
:1000300003133C0D3D0DC3004308031D2028212858
:100040002A280030BD000030BC000030BB0000306A
:10005000BA008B283A08BE003B08BF003C08C0002D
:100060003D08C1001F300310C10CC00CBF0CBE0CFA
:10007000FF3E031D33283E08C200BC17FF30BA05FF
:10008000FF30BB05FF30BC050030BD059630C30214
:10009000C31F4B284C2864284308803A973E031816
:1000A000522853285428212801300310BD0CBC0CC1
:1000B000BB0CBA0CFF3E031D55280130C307031DBE
:1000C0006228632854287B2820304302031C6928B7
:1000D0006A28762821280130BE000310BA0DBB0D16
:1000E000BC0DBD0DBE0B6D280130C3024308031DBE
:1000F0007A287B286B28420803197F2880288B28C0
:10010000BA09BB09BC09BD09BA0A0319BB0A03191C
:10011000BC0A0319BD0A08000530831203136606E2
:10012000031D9328942827290A168A11DF270A120B
:100130008A112430F0004730F1008030F2000A16B6
:100140008A11BE270A128A111030F0005230F100D5
:100150008030F2000A168A11BE270A128A11243052
:1001600083120313C4000A30C5000030C6006A08B9
:10017000CA006908C9006808C8006708C7000130DC
:10018000CB000030CC001430CD000030CE000A127D
:100190008A1188240A128A11831203134408450421
:1001A000031DD328D428D9280A168A1161270A12D8
:1001B0008A113F30F3005130F200EB30F10085300E
:1001C000F000831203136A08F7006908F600680854
:1001D000F5006708F4000A128A15A4250A128A118C
:1001E000730883120313EA007208E9007108E8003B
:1001F0007008E7001030C4000930C5000030C600A8
:100200006A08CA006908C9006808C8006708C7000A
:100210000230CB000030CC001430CD000030CE00D6
:100220000A128A1188240A128A11831203134408BD
:100230004504031D1C291D2922290A168A1161273C
:100240000A128A110A128A157F210A128A11831250
:1002500003136603031D2D292E2933290A168A113B
:1002600024270A128A110230831203136606031D23
:100270003A293B2940290A168A1120270A128A1195
:100280000A168A112C270A128A11080083120313F6
:100290002308AD008030AD052308A8002807B3006F
:1002A000A21F5329542955293314330803195929F6
:1002B0005A296929330A031D5E295F2967290030FD
:1002C000A3000030A2000030A1000030A000A2175F
:1002D00071290030A3000030A2000030A1000030DE
:1002E000A00027088039AD062708A8002807B2001B
:1002F000A61F7B297C297D29321432080319812904
:1003000082299129320A031D862987298F290030E5
:10031000A7000030A6000030A5000030A400A617FA
:1003200099290030A7000030A6000030A500003059
:10033000A400320803199D299E29A3293308031D0F
:10034000A229A329AC290030A3000030A20000306C
:10035000A1000030A000872C2008F00026080A1217
:100360008A1591200A128A11710883120313B900A9
:100370007008B8003808A800A901AA01AB012B0831
:10038000B1002A08B0002908AF002808AE003908DB
:10039000A800A901AA01AB012B08B7002A08B600E2
:1003A0002908B5002808B4002108F00025080A1221
:1003B0008A1591200A128A11710883120313B90059
:1003C0007008B8003808A800A901AA01AB012808E4
:1003D000AE07290803110318013E0319F029AF07DE
:1003E0002A0803110318013E0319F729B0072B0847
:1003F00003110318013E0319FE29B1073908A800AB
:10040000A901AA01AB012808B407290803110318A0
:10041000013E03190C2AB5072A0803110318013EEF
:100420000319132AB6072B0803110318013E0319F9
:100430001A2AB7072208F00024080A128A15912008
:100440000A128A11710883120313B9007008B800E8
:100450003808A800A901AA01AB012808AE0729089D
:1004600003110318013E0319362AAF072A080311A6
:100470000318013E03193D2AB0072B080311031886
:10048000013E0319442AB1073908A800A901AA01AD
:10049000AB012808B407290803110318013E03190A
:1004A000522AB5072A0803110318013E0319592AD5
:1004B000B6072B0803110318013E0319602AB7077A
:1004C0000830A8000310AE0DAF0DB00DB10DA80B94
:1004D000622A2108F00024080A128A1591200A12C3
:1004E0008A11710883120313B9007008B800380824
:1004F000A8003908A900AA01AB012808AE072908FD
:1005000003110318013E0319862AAF072A080311B5
:100510000318013E03198D2AB0072B080311031895
:10052000013E0319942AB1072008F00025080A1299
:100530008A1591200A128A11710883120313B900D7
:100540007008B8003808A8003908A900AA01AB0152
:100550002808AE07290803110318013E0319B12A20
:10056000AF072A0803110318013E0319B82AB00780
:100570002B0803110318013E0319BF2AB1070830E5
:10058000A8000310AE0DAF0DB00DB10DA80BC12A20
:100590002008F00024080A128A1591200A128A11F4
:1005A000710883120313B9007008B8003808A80056
:1005B0003908A900AA01AB012808AE0729080311D0
:1005C0000318013E0319E52AAF072A08031103188F
:1005D000013E0319EC2AB0072B0803110318013E52
:1005E0000319F32AB1072108F00026080A128A1518
:1005F00091200A128A11710883120313B90070083E
:10060000B8003808A8003908A900AA01AB012808D9
:10061000B407290803110318013E0319102BB5076D
:100620002A0803110318013E0319172BB6072B08DC
:1006300003110318013E03191E2BB7072208F0000F
:1006400025080A128A1591200A128A11710883124C
:100650000313B9007008B8003808A8003908A900C9
:10066000AA01AB012808B407290803110318013EA9
:1006700003193B2BB5072A0803110318013E031980
:10068000422BB6072B0803110318013E0319492B0F
:10069000B7072208F00026080A128A1591200A12CC
:1006A0008A11710883120313B9007008B800380862
:1006B000A8003908A900AA01AB0108300310A80D51
:1006C000A90DAA0DAB0DFF3E031D5E2B2808B40734
:1006D000290803110318013E03196F2BB5072A08D7
:1006E00003110318013E0319762BB6072B080311DB
:1006F0000318013E03197D2BB7072E08A8002F0809
:10070000A9003008AA003108AB0018300310AB0C68
:10071000AA0CA90CA80CFF3E031D862B2808B407C1
:10072000290803110318013E0319972BB5072A085E
:1007300003110318013E03199E2BB6072B08031162
:100740000318013E0319A52BB7070830A8000310B2
:10075000AE0DAF0DB00DB10DA80BA72B33083207AE
:10076000A800A901A90D2808823EB800290803188D
:10077000013EFF3EB900D92B0130A8000310B40D93
:10078000B50DB60DB70DA80BBE2BB11FC82BC92BCD
:10079000CA2B34140130A8000310AE0DAF0DB00DFC
:1007A000B10DA80BCC2BFF30B8070318B90AFF30E6
:1007B000B907B61FDC2BDD2BBC2BB201B11FE12B1F
:1007C000E22BFE2BFF302E05A800FF302F05A900DD
:1007D000FF303005AA007F303105AB002B082A041A
:1007E000290428040319F52BF62BF92B0130B2004C
:1007F000FE2B341CFC2BFD2BFE2BF62B3208031991
:10080000022C032C342C0130B407003003180130C3
:10081000B507003003180130B60700300318013067
:10082000B707371C142C152C342C3408A8003508B5
:10083000A9003608AA003708AB000130AC002B0D28
:10084000AB0CAA0CA90CA80CAC0B1F2C2B08B700E6
:100850002A08B6002908B5002808B4000130B807F6
:100860000318B90A0030B9073908803AFF00803010
:100870007F02031D3D2CFF303802031C402C412C0D
:100880004C2C7F3083120313B7008030B600003049
:10089000B5000030B4007D2C831203133908803A70
:1008A000FF0080307F02031D572C013038020318EF
:1008B0005A2C5B2C672C003083120313B7000030D6
:1008C000B6000030B5000030B400AD017D2C8312BD
:1008D00003133808B300FF30B405FF30B5057F308F
:1008E000B6050030B705331C762C772C782CB6175C
:1008F0003308A8000310280CB7002D08B7043708E8
:10090000A3003608A2003508A1003408A0000800A2
:1009100083120313440803198E2C8F2CA12CC61BA1
:10092000922C932CA12C4608803ACF004E08803A96
:100930004F02031D9D2C4D084502031CA02CA12C29
:10094000A62C83120313C401C501D32F83160313EE
:10095000E801E90183120313D601D7014A08F30025
:100960004908F2004808F1004708F0000030F7009D
:100970000030F6000030F5000030F4000A128A154D
:10098000F1220A128A110318C62CC72CE42C01305C
:1009900083120313D6000030D7004A08F300490839
:1009A000F2004808F1004708F0000A168A114627AD
:1009B0000A128A11730883120313CA007208C9004D
:1009C0007108C8007008C700831203134B084C0459
:1009D000031DEB2CEC2CB42D4A08BD004908BC00CB
:1009E0004808BB004708BA000A128A1116200A12EA
:1009F0008A11831203133B0883160313E700831243
:100A000003133A0883160313E600831203135608F0
:100A1000570403190C2D0D2D142D83160313E6090D
:100A2000E709E60A0319E70A83160313E71F192DDE
:100A30001A2D2B2D2D3083160317B000013083168D
:100A40000313E8070318E90A0030E907E609E70994
:100A5000E60A0319E70A66086704031D302D312DE5
:100A60003E2D6808B03E840030308317800001308E
:100A7000E8070318E90A0030E9079B2F83120313E4
:100A8000D801D901782D831203135808A03E8400A1
:100A90000A30F0000030F100831603136708F300FA
:100AA0006608F2000A128A15C9210A128A11700812
:100AB000303E83138000013083120313D8070318DC
:100AC000D90A0030D9070A30F0000030F10083164F
:100AD00003136708F3006608F2000A128A15202241
:100AE0000A128A11710883160313E7007008E600E2
:100AF000831603136708803AFF0080307F02031DCE
:100B0000832D013066020318862D872D432DA42DD9
:100B1000FF3083120313D8070318D90AFF30D9070F
:100B20005808A03E840083130008FF0083160313B7
:100B30006808B03E84007F08831780000130E80712
:100B40000318E90A0030E907831203135908803AB1
:100B5000FF0080307F02031DAF2D013058020318C3
:100B6000B22DB32D882D9B2F013083160313E00087
:100B70000030E10083120313D201D301DC2D0A30CF
:100B8000F0000030F100831603136108F3006008E1
:100B9000F2000A128A156C200A128A117108831653
:100BA0000313E1007008E000013083120313D20741
:100BB0000318D30A0030D3075308803ACF004C08FB
:100BC000803A4F02031DE62D4B085202031CE92D0B
:100BD000EA2DBF2D831603136008F0006108F100B1
:100BE0000030F11BFF30F200F30001300A128A15C9
:100BF00093230A128A11730883120313A700720841
:100C0000A6007108A5007008A4004A08A3004908BE
:100C1000A2004808A1004708A0000A128A11462134
:100C20000A128A11831203132308BD002208BC0094
:100C30002108BB002008BA000A128A1116200A12E5
:100C40008A11831203133B08DB003A08DA005608C6
:100C5000570403192C2E2D2E322EDA09DB09DA0A5D
:100C60000319DB0A831603136108F1006008F00022
:100C7000831203135B08F3005A08F2000A128A1564
:100C800020220A128A11710883160313E5007008E6
:100C9000E4006108F1006008F000831203135B08B0
:100CA000F3005A08F2000A128A15C9210A128A11A1
:100CB000710883160313E3007008E200E31F612E3E
:100CC000622E672EE209E309E20A0319E30A83129E
:100CD00003135608570403196E2E6F2E7D2E8316AC
:100CE00003136808B03E84002D3083178000013064
:100CF000E8070318E90A0030E90783160313E51F24
:100D0000822E832E882EE409E509E40A0319E50AF8
:100D100064086504031D8D2E8E2E9B2E6808B03E40
:100D200084003030831780000130E8070318E90A97
:100D30000030E907102F83120313DC01DD01D52EEB
:100D4000831203135C08C03E84000A30F0000030B8
:100D5000F100831603136508F3006408F2000A1219
:100D60008A15C9210A128A117008303E8313800047
:100D7000013083120313DC070318DD0A0030DD079E
:100D80000A30F0000030F100831603136508F30009
:100D90006408F2000A128A1520220A128A117108C8
:100DA00083160313E5007008E40083160313650837
:100DB000803AFF0080307F02031DE02E0130640284
:100DC0000318E32EE42EA02E012FFF30831203130D
:100DD000DC070318DD0AFF30DD075C08C03E840035
:100DE00083130008FF00831603136808B03E8400D5
:100DF0007F08831780000130E8070318E90A0030F4
:100E0000E907831203135D08803AFF0080307F02F8
:100E1000031D0C2F01305C0203180F2F102FE52E3D
:100E2000831603136808B03E84002E3083178000B9
:100E30000130E8070318E90A0030E90783120313B9
:100E4000DE01DF01D401D501622F831203135E0896
:100E5000903E84000A30F0000030F1008316031346
:100E60006308F3006208F2000A128A15C9210A1207
:100E70008A117008303E83178000013083120313FB
:100E8000DE070318DF0A0030DF070A30F000003009
:100E9000F100831603136308F3006208F2000A12DC
:100EA0008A1520220A128A11710883160313E3009F
:100EB0007008E200013083120313D4070318D50A27
:100EC0000030D5075508803ACF004C08803A4F02D1
:100ED000031D6C2F4B085402031C6F2F702F252FFE
:100EE0008C2FFF3083120313DE070318DF0AFF3055
:100EF000DF075E08903E840083170008FF0083161A
:100F000003136808B03E84007F0880000130E807C2
:100F10000318E90A0030E907831203135F08803AD7
:100F2000FF0080307F02031D972F01305E020318FF
:100F30009A2F9B2F712F831603136808B03E8400ED
:100F4000831780016808831203134507CF008316B7
:100F5000031369080318690A831203134607D000B4
:100F60005008803AD1004E08803A5102031DBA2F32
:100F70004D084F02031CBD2FBE2FBF2FA12C831283
:100F8000031345084407F000B030F1000130F200CF
:100F90000A168A11BE270A128A110130831203131E
:100FA000C4000030C50008000A168A1128270A125A
:100FB0008A11E7000A168A1129270A128A11E80005
:100FC0000A168A112A270A128A11E9000A168A11BA
:100FD0002B270A128A11EA00831710308400383058
:100FE0000A168A113E270A128A11E001E101E20184
:100FF000E301E401E501E60183010A128A150829EB
:10100000FF1B0A2883137F1883170008840A03191B
:10101000FF0A080008308A000408840A82070034A6
:101020000E340034003400340F3400340D340034F6
:101030000734003408340034093400340C340034EC
:101040000434003405340034063400340B340034E6
:101050000134003402340034033400340A340034E0
:101060004434453442345534473420344D344534C7
:1010700053345334413447344534003452345534B6
:101080004E34203441344E34593457344834523479
:101090004534003443344F344E3443342E342034FA
:1010A0004534523452344F34523400344C34613469
:1010B000733474342034563461346C343A3420340C
:1010C00000344E34653477342034563461346C3413
:0610D0003A342034003424
:1010D800F401F501701C7128722878287208F40749
:1010E8000318F50A7308F50701300310F20DF30D24
:1010F800FF3E031D792801300310F10CF00CFF3E70
:10110800031D802870087104031D8B288C286E2805
:101118007508F1007408F0000800F800F401F50102
:101128007008F200F3017208F6007308F700781CE3
:101138009E289F28A5287608F4070318F50A77083B
:10114800F50701300310F60DF70DFF3E031DA62825
:101158000310F80C7808031DB228B3289B287508DB
:10116800F1007408F0000800F600C9287508F700B7
:10117800D7287508403EF700D7287508143EF700B1
:10118800D7287508543EF700D7287608003A03197F
:10119800BA28013A0319BD28033A0319C128013AAC
:1011A8000319C528BA28770880380A168A118A27A9
:1011B8000A128A1508000A168A1131270A128A1596
:1011C8008316031308108810081188110812881252
:1011D8000A128A1583220A128A1583160313071026
:1011E80000300A168A1137270A128A151A30F800B1
:1011F8005E30F7006E30F600F60B0029F70B002979
:10120800F80B0029000008000A128A15DF200A12CC
:101218008A150A168A11DF270A128A152430F00067
:101228002F30F1008030F2000A168A11BE270A1208
:101238008A150A128A157F210A128A150A128A113A
:1012480003200A128A15013A031D2B292C29222969
:101258000A128A118C200A128A1522290A128A1166
:101268000028F20001307205F00083120313080809
:101278007006FE39700688007208F0000310700CC2
:101288000139F100F10D08087106FD397106880071
:101298007208F00002300310F00CFF3E031D4F29C6
:1012A80070080139F100F10DF10D08087106FB39DC
:1012B800710688007208F00003300310F00CFF3E3E
:1012C800031D612970080139F100F10DF10DF10DCF
:1012D80008087106F7397106880088160330F0008F
:1012E800F00B7429831203138812A630F000F00B58
:1012F8007B29000008000A168A1151270A128A154C
:10130800F50100300A128A15B8200A128A15F80168
:10131800F9019D297808243E840000080A168A11DC
:10132800A4270A128A150130F8070318F90A0030B1
:10133800F9077808243E840083170008031DA529AF
:10134800A6298E29F50101300A128A15B8200A1239
:101358008A15F801F901BF297808103E84000008B1
:101368000A168A11A4270A128A150130F8070318E9
:10137800F90A0030F9077808103E8400831700083E
:10138800031DC729C829B0290800F501F31FCD2975
:10139800CE29D529F209F309F20A0319F30A013013
:1013A800F500F11FD829D929DE29F009F109F00A39
:1013B8000319F10A700871040319E329E429112AB1
:1013C8000130F400F02901300310F00DF10DFF3E5B
:1013D800031DE8290130F407F11FF329F429E7294F
:1013E80071087302031DFA2970087202031CFD2993
:1013F800FE29042A7008F2027108031CF303F302A1
:1014080001300310F10CF00CFF3E031D052A0130DA
:10141800F402031D102A112AF42975080319152A44
:10142800162A1B2AF209F309F20A0319F30A7308A8
:10143800F1007208F0000800F501F11F242A252A9E
:101448002C2AF009F109F00A0319F10A0130F50014
:10145800F31F2F2A302A372AF209F309F20A03194F
:10146800F30A0130F506F601F70170087104031953
:101478003E2A3F2A742A0130F4004B2A0130031017
:10148800F00DF10DFF3E031D432A0130F407F11F53
:101498004E2A4F2A422A01300310F60DF70DFF3E5F
:1014A800031D502A71087302031D5C2A700872021A
:1014B800031C5F2A602A672A7008F2027108031C5D
:1014C800F303F302761401300310F10CF00CFF3E25
:1014D800031D682A0130F402031D732A742A4F2A57
:1014E80075080319782A792A7E2AF609F709F60A6F
:1014F8000319F70A7708F1007608F000080014309D
:10150800F0000030F1000A168A1172270A128A15B3
:10151800831203130812881203300A128A15352120
:101528000A128A150530F0000030F1000A168A11F7
:1015380072270A128A1503300A128A1535210A12EF
:101548008A15F930F500F50BA72AAA2A03300A12E2
:101558008A1535210A128A15F930F500F50BB22AD9
:10156800B52A02300A128A1535210A128A15F9306D
:10157800F500F50BBD2AC02A28300A168A118A27D9
:101588000A128A15F930F500F50BC82ACB2A0C3057
:101598000A168A118A270A128A15F930F500F50BFE
:1015A800D32AD62A01300A168A118A270A128A15DE
:1015B8000230F0000030F1000A168A1172270A1270
:1015C8008A1506300A168A118A270A128A15F930EE
:1015D800F500F50BED2AF02A080000307005F80038
:1015E80000307105F90080307205FA007F3073050C
:1015F800FB007B087A0479047804031D042B052B6F
:101608000D2B0030F3000030F2000030F100003004
:10161800F00000307405F80000307505F9008030DE
:101628007605FA007F307705FB007B087A04790499
:101638007804031D202B212B292B0030F7000030C4
:10164800F6000030F5000030F400F31F2C2B2D2B92
:10165800512B0030F8000030F9000030FA008030DB
:10166800FB007008F8027108031C710F3C2B3D2B1E
:10167800F9027208031C720F422B432BFA027308FB
:10168800031C730F482B492BFB027B08F3007A08D5
:10169800F2007908F1007808F000F71F542B552B59
:1016A800792B0030F8000030F9000030FA00803063
:1016B800FB007408F8027508031C750F642B652B72
:1016C800F9027608031C760F6A2B6B2BFA0277084F
:1016D800031C770F702B712BFB027B08F7007A082D
:1016E800F6007908F5007808F4008030F3068030B9
:1016F800F70677087302031D8B2B76087202031D09
:101708008B2B75087102031D8B2B7408700203184C
:101718008E2B8F2B912B0310922B03140800F800AB
:1017280078080319982B992BAD2BF31F9C2B9D2B15
:10173800AD2B7009FA007109FB007209FC007309EE
:10174800FD00FA0A0319FB0A0319FC0A0319FD0A2A
:10175800B52B7308FD007208FC007108FB007008C7
:10176800FA007308720471047004031DBC2BBD2BAE
:10177800C62B0030F3000030F2000030F1000030DA
:10178800F000462C9630F900D42B0130F9070130CF
:101798000310FD0CFC0CFB0CFA0CFF3E031DCC2BBC
:1017A800FE307D05031DD92BDA2BC92BF42B013014
:1017B800F9070130FA07003003180130FB07003041
:1017C80003180130FC07003003180130FD07013011
:1017D8000310FD0CFC0CFB0CFA0CFF3E031DEC2B5C
:1017E800FF307D05031DF92BFA2BDB2B062C01306E
:1017F800F9020130F4000310FA0DFB0DFC0DFD0D8C
:10180800F40BFF2BFC1B092C0A2C102C023079023C
:1018180003180F2C102CFB2B7918132C142C1C2CB0
:10182800FF30FA05FF30FB057F30FC05FF30FD0572
:101838000310F90C7908F400F501F601F7011830E6
:101848000310F40DF50DF60DF70DFF3E031D242CC6
:101858007408FA047508FB047608FC047708FD048C
:1018680078080319382C392C3E2CF31F3C2C3D2CBE
:101878003E2CFD177D08F3007C08F2007B08F10080
:101888007A08F0000800F030831203138600F03065
:101898000606031D502C512C542CE201E301A32D04
:1018A8008230F100DD30F000F00B582CF10B582C91
:1018B8005D2CF030831203130606031D642C652C7F
:1018C800662C512C6403650403196B2C6C2CA32D16
:1018D80062036304031D712C722C732CA32DFE303C
:1018E8008600061A782C792C872C193084000A1265
:1018F8008A150A200A128A15E0000A128A150A2097
:101908000A128A15E100861A8A2C8B2C992C113020
:1019180084000A128A150A200A128A15E0000A129F
:101928008A150A200A128A15E100061B9C2C9D2C98
:10193800AB2C093084000A128A150A200A128A156B
:10194800E0000A128A150A200A128A15E100861B8D
:10195800AE2CAF2CBD2C013084000A128A150A2047
:101968000A128A15E0000A128A150A200A128A1534
:10197800E100FD308600061AC22CC32CD12C1B3086
:1019880084000A128A150A200A128A15E0000A122F
:101998008A150A200A128A15E100861AD42CD52C39
:1019A800E32C133084000A128A150A200A128A15B9
:1019B800E0000A128A150A200A128A15E100061B9D
:1019C800E62CE72CF52C0B3084000A128A150A2025
:1019D8000A128A15E0000A128A150A200A128A15C4
:1019E800E100861BF82CF92C072D033084000A121D
:1019F8008A150A200A128A15E0000A128A150A2096
:101A08000A128A15E100FB308600061A0C2D0D2DEE
:101A18001B2D1D3084000A128A150A200A128A1505
:101A2800E0000A128A150A200A128A15E100861AAD
:101A38001E2D1F2D2D2D153084000A128A150A20FF
:101A48000A128A15E0000A128A150A200A128A1553
:101A5800E100061B302D312D3F2D0D3084000A1278
:101A68008A150A200A128A15E0000A128A150A2025
:101A78000A128A15E100861B422D432D512D05308F
:101A880084000A128A150A200A128A15E0000A122E
:101A98008A150A200A128A15E100F7308600061A0C
:101AA800562D572D652D1F3084000A128A150A20DD
:101AB8000A128A15E0000A128A150A200A128A15E3
:101AC800E100861A682D692D772D173084000A12D7
:101AD8008A150A200A128A15E0000A128A150A20B5
:101AE8000A128A15E100061B7A2D7B2D892D0F30ED
:101AF80084000A128A150A200A128A15E0000A12BE
:101B08008A150A200A128A15E100861B8C2D8D2D54
:101B18009B2D073084000A128A150A200A128A159A
:101B2800E0000A128A150A200A128A15E10001301B
:101B3800E2000030E3000130E4000030E500080076
:101B48007308F8008030F805730883120313A000A7
:101B58002007FA00F21FB12DB22DB32D7A147A089E
:101B68000319B72DB82DC82D7A0A031DBC2DBD2D1C
:101B7800C52D0030F3000030F2000030F1000030D5
:101B8800F000F217F301D02D0030F3000030F2001E
:101B98000030F1000030F0007708F9008030F905D6
:101BA800790878060319D92DDA2DDB2D78177708EF
:101BB800A0002007F900F61FE22DE32DE42D79148B
:101BC80079080319E82DE92DF92D790A031DED2D62
:101BD800EE2DF62D0030F7000030F6000030F5004D
:101BE8000030F400F617F701012E0030F70000303E
:101BF800F6000030F5000030F4007A087902031886
:101C0800062E072E2B2E781F0A2E0B2E0D2E803017
:101C1800F8067A08FB007908FA007B08F9007008D2
:101C2800FB007408F0007B08F4007108FB007508DD
:101C3800F1007B08F5007208FB007608F2007B08CB
:101C4800F6007308FB007708F3007B08F700FB0138
:101C58007908A000A1012108A3007A082002A200A7
:101C6800031CA3032308803AFF0080307F02031D72
:101C78003F2E1A302202031C422E432E7A2E73085E
:101C8800720471047004031D4A2E4C2E01304D2E2F
:101C98000030FB000030F3000030F2000030F100AB
:101CA8000030F0007908FA00802E7B1C5C2E5D2E37
:101CB800662E7B0883120313A0000310200C013842
:101CC800FB00682E0310FB0C701C6B2E6C2E6D2E07
:101CD800FB17013083120313A000730DF30CF20CF1
:101CE800F10CF00CA00B712E0130FA0779087A027A
:101CF800031C7F2E802E592E781B832E842ECF2EE8
:101D08007A08031D882E892E922E0030F3000030A9
:101D1800F2000030F1000030F000FF2F7408F007E7
:101D2800750803110318013E03199B2EF107760865
:101D380003110318013E0319A22EF20777080311B5
:101D48000318013E0319A92EF307731CAC2EAD2E00
:101D5800872F7B1CB02EB12EBA2E7B08831203135B
:101D6800A0000310200C0138FB00BC2E0310FB0C54
:101D7800701CBF2EC02EC12EFB1701308312031317
:101D8800A000730DF30CF20CF10CF00CA00BC52E97
:101D98000130FA07872F7308803AFF007708803AE6
:101DA8007F02031DE12E76087202031DE12E7508DD
:101DB8007102031DE12E740870020318E42EE52E4B
:101DC8003E2FFF3083120313A000FF30A100FF3025
:101DD800A200FF30A3007408A4007508A5007608C7
:101DE800A6007708A7007008A4027108031C710FE9
:101DF800FE2EFF2EA5027208031C720F042F052F5A
:101E0800A6027308031C730F0A2F0B2FA7022408BE
:101E1800A00725080318250F122F132FA10726083E
:101E28000318260F182F192FA20727080318270AA7
:101E3800A3072308F3002208F2002108F100200874
:101E4800F0008030F8067B03FF3AFB007B08031D97
:101E58002E2F2F2F4C2F0130F007003003180130A0
:101E6800F107003003180130F20700300318013081
:101E7800F3074C2F7408F0027508031C750FF10264
:101E88007608031C760FF2027708031C770FF3021B
:101E98007308720471047004031D532F542F832F89
:101EA8007B08031D582F592F832F0030F300003073
:101EB800F2000030F1000030F000FF2F01308312F3
:101EC8000313A0000310F00DF10DF20DF30DA00B9C
:101ED800662FFB1F702F712F722F70147B1C752FAC
:101EE800762F7A2F03147B0DFB007C2F0310FB0D3C
:101EF8007A080319802F812F832F0130FA02F21FED
:101F0800862F872F622FF901FB1F8B2F8C2F9A2F7B
:101F18007B087F390319912F922F952F0130F900F3
:101F28009A2F701C982F992F9A2F922F790803199E
:101F38009E2F9F2FD32F0130F00700300318013058
:101F4800F107003003180130F207003003180130A0
:101F5800F307731CB02FB12FD32F7008831203130C
:101F6800A0007108A1007208A2007308A300013044
:101F7800A400230DA30CA20CA10CA00CA40BBD2F34
:101F88002308F3002208F2002108F1002008F000DD
:101F98007A0A0319D02FD12FD32F0130FA077A0AE2
:101FA8000319D72FD82FDD2F7A08031DDC2FDD2F3B
:101FB800EB2F0030F3000030F2000030F100003069
:101FC800F0007A08031DE92FEA2FEB2FF8017A1C9D
:101FD800EE2FEF2FF12FF217F32F7F30F2057A084B
:101FE80083120313A0000310200CF300F81FFD2F29
:081FF800FE2FFF2FF317080074
:102E400083120313071008008312031307140800EA
:102E5000CD34CC347434413483120313E401E501DE
:102E60000800F03083160313860081130800F00079
:102E7000700C031C8B1303188B170800640080016F
:102E8000840A04060319003404063F2F73087204F1
:102E90007104700403194D2F4E2F502F8030F3060C
:102EA000080001300A168A118A270A168A11023090
:102EB000F0000030F1000A168A1172270A168A11F2
:102EC00008000A168A11DF270A168A112430F0003A
:102ED0003B30F1008030F2000A168A11BE270A1634
:102EE0008A1108007B2F0730F3007D30F200F20BCF
:102EF000772FF30B772F0130F0020030031CF10322
:102F0000F102700A031D882F710A031D882F892F73
:102F1000732F0800F4008312031308127408F300DF
:102F200004300310F30CFF3E031D912F73080A12A7
:102F30008A1535210A168A1174080F390A128A1562
:102F400035210A168A110800F400831203130816AB
:102F50007408F30004300310F30CFF3E031DAB2F85
:102F600073080A128A1535210A168A1174080F3956
:102F70000A128A1535210A168A1108007008F50010
:102F80007208F4007108F300F10A0319F20A7408D8
:102F900083120313FF00730884000A128A150020AD
:102FA0000A168A11FF007508F50A84007F08831746
:102FB00080000008031DDD2FDE2FC02F0800F00168
:102FC000F1017008243E84002030831780007008CF
:102FD000103E8400203080000130F0070318F10A11
:102FE0000030F1077108803AFF0080307F02031D36
:102FF000FB2F14307002031CFE2FFF2FE12F08005F
:02400E00723FFF
:00000001FF
